{
  "_format": "hh-sol-artifact-1",
  "contractName": "ChainSureSurplusDistributor",
  "sourceName": "contracts/ChainSureSurplusDistributor.sol",
  "abi": [
    {
      "inputs": [
        {
          "internalType": "address",
          "name": "_stablecoin",
          "type": "address"
        },
        {
          "internalType": "address",
          "name": "_governanceToken",
          "type": "address"
        },
        {
          "internalType": "address",
          "name": "_policyNFT",
          "type": "address"
        },
        {
          "internalType": "address",
          "name": "_reinsuranceProvider",
          "type": "address"
        }
      ],
      "stateMutability": "nonpayable",
      "type": "constructor"
    },
    {
      "anonymous": false,
      "inputs": [
        {
          "indexed": true,
          "internalType": "address",
          "name": "recipient",
          "type": "address"
        },
        {
          "indexed": false,
          "internalType": "uint256",
          "name": "amount",
          "type": "uint256"
        },
        {
          "indexed": false,
          "internalType": "uint256",
          "name": "distributionId",
          "type": "uint256"
        }
      ],
      "name": "ClaimProcessed",
      "type": "event"
    },
    {
      "anonymous": false,
      "inputs": [
        {
          "indexed": true,
          "internalType": "address",
          "name": "recipient",
          "type": "address"
        },
        {
          "indexed": false,
          "internalType": "uint256",
          "name": "amount",
          "type": "uint256"
        },
        {
          "indexed": false,
          "internalType": "uint256",
          "name": "distributionId",
          "type": "uint256"
        }
      ],
      "name": "ClaimSubmitted",
      "type": "event"
    },
    {
      "anonymous": false,
      "inputs": [
        {
          "indexed": false,
          "internalType": "uint256",
          "name": "distributionId",
          "type": "uint256"
        },
        {
          "indexed": false,
          "internalType": "uint256",
          "name": "totalAmount",
          "type": "uint256"
        },
        {
          "indexed": false,
          "internalType": "uint256",
          "name": "recipients",
          "type": "uint256"
        }
      ],
      "name": "DistributionExecuted",
      "type": "event"
    },
    {
      "anonymous": false,
      "inputs": [
        {
          "indexed": false,
          "internalType": "uint256",
          "name": "amount",
          "type": "uint256"
        },
        {
          "indexed": false,
          "internalType": "string",
          "name": "reason",
          "type": "string"
        }
      ],
      "name": "EmergencyFundAllocated",
      "type": "event"
    },
    {
      "anonymous": false,
      "inputs": [
        {
          "indexed": true,
          "internalType": "address",
          "name": "previousOwner",
          "type": "address"
        },
        {
          "indexed": true,
          "internalType": "address",
          "name": "newOwner",
          "type": "address"
        }
      ],
      "name": "OwnershipTransferred",
      "type": "event"
    },
    {
      "anonymous": false,
      "inputs": [
        {
          "indexed": false,
          "internalType": "address",
          "name": "account",
          "type": "address"
        }
      ],
      "name": "Paused",
      "type": "event"
    },
    {
      "anonymous": false,
      "inputs": [
        {
          "indexed": false,
          "internalType": "uint256",
          "name": "amount",
          "type": "uint256"
        },
        {
          "indexed": false,
          "internalType": "address",
          "name": "reinsurer",
          "type": "address"
        }
      ],
      "name": "ReinsurancePremiumPaid",
      "type": "event"
    },
    {
      "anonymous": false,
      "inputs": [
        {
          "indexed": false,
          "internalType": "uint256",
          "name": "totalSurplus",
          "type": "uint256"
        },
        {
          "indexed": false,
          "internalType": "uint256",
          "name": "distributableSurplus",
          "type": "uint256"
        },
        {
          "indexed": false,
          "internalType": "uint256",
          "name": "reserveAllocation",
          "type": "uint256"
        }
      ],
      "name": "SurplusCalculated",
      "type": "event"
    },
    {
      "anonymous": false,
      "inputs": [
        {
          "indexed": false,
          "internalType": "address",
          "name": "account",
          "type": "address"
        }
      ],
      "name": "Unpaused",
      "type": "event"
    },
    {
      "inputs": [],
      "name": "CLAIM_PERIOD",
      "outputs": [
        {
          "internalType": "uint256",
          "name": "",
          "type": "uint256"
        }
      ],
      "stateMutability": "view",
      "type": "function"
    },
    {
      "inputs": [],
      "name": "DISTRIBUTION_LOCK_PERIOD",
      "outputs": [
        {
          "internalType": "uint256",
          "name": "",
          "type": "uint256"
        }
      ],
      "stateMutability": "view",
      "type": "function"
    },
    {
      "inputs": [
        {
          "internalType": "address",
          "name": "recipient",
          "type": "address"
        },
        {
          "internalType": "uint256",
          "name": "amount",
          "type": "uint256"
        },
        {
          "internalType": "string",
          "name": "reason",
          "type": "string"
        }
      ],
      "name": "allocateEmergencyFunds",
      "outputs": [],
      "stateMutability": "nonpayable",
      "type": "function"
    },
    {
      "inputs": [
        {
          "internalType": "uint256",
          "name": "totalPremiums",
          "type": "uint256"
        },
        {
          "internalType": "uint256",
          "name": "totalClaims",
          "type": "uint256"
        },
        {
          "internalType": "uint256",
          "name": "operatingExpenses",
          "type": "uint256"
        }
      ],
      "name": "calculateAndDistributeSurplus",
      "outputs": [],
      "stateMutability": "nonpayable",
      "type": "function"
    },
    {
      "inputs": [
        {
          "internalType": "uint256[]",
          "name": "distributionIds",
          "type": "uint256[]"
        }
      ],
      "name": "claimMultipleRewards",
      "outputs": [],
      "stateMutability": "nonpayable",
      "type": "function"
    },
    {
      "inputs": [
        {
          "internalType": "uint256",
          "name": "distributionId",
          "type": "uint256"
        }
      ],
      "name": "claimRewards",
      "outputs": [],
      "stateMutability": "nonpayable",
      "type": "function"
    },
    {
      "inputs": [
        {
          "internalType": "uint256",
          "name": "",
          "type": "uint256"
        }
      ],
      "name": "distributions",
      "outputs": [
        {
          "internalType": "uint256",
          "name": "distributionId",
          "type": "uint256"
        },
        {
          "internalType": "uint256",
          "name": "totalAmount",
          "type": "uint256"
        },
        {
          "internalType": "uint256",
          "name": "timestamp",
          "type": "uint256"
        },
        {
          "internalType": "uint256",
          "name": "snapshotBlock",
          "type": "uint256"
        },
        {
          "internalType": "uint256",
          "name": "governanceTokenSupply",
          "type": "uint256"
        },
        {
          "internalType": "uint256",
          "name": "totalPolicyholders",
          "type": "uint256"
        },
        {
          "internalType": "bool",
          "name": "finalized",
          "type": "bool"
        }
      ],
      "stateMutability": "view",
      "type": "function"
    },
    {
      "inputs": [],
      "name": "emergencyFund",
      "outputs": [
        {
          "internalType": "uint256",
          "name": "",
          "type": "uint256"
        }
      ],
      "stateMutability": "view",
      "type": "function"
    },
    {
      "inputs": [],
      "name": "emergencyFundRatio",
      "outputs": [
        {
          "internalType": "uint256",
          "name": "",
          "type": "uint256"
        }
      ],
      "stateMutability": "view",
      "type": "function"
    },
    {
      "inputs": [
        {
          "internalType": "uint256",
          "name": "distributionId",
          "type": "uint256"
        },
        {
          "internalType": "address[]",
          "name": "governanceHolders",
          "type": "address[]"
        },
        {
          "internalType": "uint256[]",
          "name": "balances",
          "type": "uint256[]"
        },
        {
          "internalType": "address[]",
          "name": "policyholders",
          "type": "address[]"
        }
      ],
      "name": "finalizeDistribution",
      "outputs": [],
      "stateMutability": "nonpayable",
      "type": "function"
    },
    {
      "inputs": [
        {
          "internalType": "uint256",
          "name": "distributionId",
          "type": "uint256"
        },
        {
          "internalType": "address",
          "name": "user",
          "type": "address"
        }
      ],
      "name": "getDistributionAllocation",
      "outputs": [
        {
          "internalType": "uint256",
          "name": "",
          "type": "uint256"
        }
      ],
      "stateMutability": "view",
      "type": "function"
    },
    {
      "inputs": [],
      "name": "getSurplusHistory",
      "outputs": [
        {
          "components": [
            {
              "internalType": "uint256",
              "name": "totalPremiums",
              "type": "uint256"
            },
            {
              "internalType": "uint256",
              "name": "totalClaims",
              "type": "uint256"
            },
            {
              "internalType": "uint256",
              "name": "operatingExpenses",
              "type": "uint256"
            },
            {
              "internalType": "uint256",
              "name": "reinsuranceCosts",
              "type": "uint256"
            },
            {
              "internalType": "uint256",
              "name": "reserveRequirement",
              "type": "uint256"
            },
            {
              "internalType": "uint256",
              "name": "emergencyFundAllocation",
              "type": "uint256"
            },
            {
              "internalType": "uint256",
              "name": "distributableSurplus",
              "type": "uint256"
            },
            {
              "internalType": "uint256",
              "name": "timestamp",
              "type": "uint256"
            }
          ],
          "internalType": "struct ChainSureSurplusDistributor.SurplusCalculation[]",
          "name": "",
          "type": "tuple[]"
        }
      ],
      "stateMutability": "view",
      "type": "function"
    },
    {
      "inputs": [
        {
          "internalType": "address",
          "name": "user",
          "type": "address"
        }
      ],
      "name": "getUnclaimedRewards",
      "outputs": [
        {
          "internalType": "uint256",
          "name": "",
          "type": "uint256"
        }
      ],
      "stateMutability": "view",
      "type": "function"
    },
    {
      "inputs": [
        {
          "internalType": "address",
          "name": "user",
          "type": "address"
        }
      ],
      "name": "getUserDistributions",
      "outputs": [
        {
          "internalType": "uint256[]",
          "name": "",
          "type": "uint256[]"
        }
      ],
      "stateMutability": "view",
      "type": "function"
    },
    {
      "inputs": [],
      "name": "governanceToken",
      "outputs": [
        {
          "internalType": "contract ChainSureGovernanceToken",
          "name": "",
          "type": "address"
        }
      ],
      "stateMutability": "view",
      "type": "function"
    },
    {
      "inputs": [],
      "name": "governanceTokenWeight",
      "outputs": [
        {
          "internalType": "uint256",
          "name": "",
          "type": "uint256"
        }
      ],
      "stateMutability": "view",
      "type": "function"
    },
    {
      "inputs": [
        {
          "internalType": "uint256",
          "name": "distributionId",
          "type": "uint256"
        },
        {
          "internalType": "address",
          "name": "user",
          "type": "address"
        }
      ],
      "name": "hasClaimedDistribution",
      "outputs": [
        {
          "internalType": "bool",
          "name": "",
          "type": "bool"
        }
      ],
      "stateMutability": "view",
      "type": "function"
    },
    {
      "inputs": [],
      "name": "lastReinsurancePayment",
      "outputs": [
        {
          "internalType": "uint256",
          "name": "",
          "type": "uint256"
        }
      ],
      "stateMutability": "view",
      "type": "function"
    },
    {
      "inputs": [],
      "name": "minimumDistributionAmount",
      "outputs": [
        {
          "internalType": "uint256",
          "name": "",
          "type": "uint256"
        }
      ],
      "stateMutability": "view",
      "type": "function"
    },
    {
      "inputs": [],
      "name": "nextDistributionId",
      "outputs": [
        {
          "internalType": "uint256",
          "name": "",
          "type": "uint256"
        }
      ],
      "stateMutability": "view",
      "type": "function"
    },
    {
      "inputs": [],
      "name": "owner",
      "outputs": [
        {
          "internalType": "address",
          "name": "",
          "type": "address"
        }
      ],
      "stateMutability": "view",
      "type": "function"
    },
    {
      "inputs": [],
      "name": "pause",
      "outputs": [],
      "stateMutability": "nonpayable",
      "type": "function"
    },
    {
      "inputs": [],
      "name": "paused",
      "outputs": [
        {
          "internalType": "bool",
          "name": "",
          "type": "bool"
        }
      ],
      "stateMutability": "view",
      "type": "function"
    },
    {
      "inputs": [],
      "name": "policyNFT",
      "outputs": [
        {
          "internalType": "contract ChainSurePolicyNFT",
          "name": "",
          "type": "address"
        }
      ],
      "stateMutability": "view",
      "type": "function"
    },
    {
      "inputs": [],
      "name": "policyholderBonus",
      "outputs": [
        {
          "internalType": "uint256",
          "name": "",
          "type": "uint256"
        }
      ],
      "stateMutability": "view",
      "type": "function"
    },
    {
      "inputs": [
        {
          "internalType": "uint256[]",
          "name": "distributionIds",
          "type": "uint256[]"
        }
      ],
      "name": "recoverExpiredDistributions",
      "outputs": [],
      "stateMutability": "nonpayable",
      "type": "function"
    },
    {
      "inputs": [],
      "name": "reinsuranceProvider",
      "outputs": [
        {
          "internalType": "address",
          "name": "",
          "type": "address"
        }
      ],
      "stateMutability": "view",
      "type": "function"
    },
    {
      "inputs": [],
      "name": "reinsuranceRatio",
      "outputs": [
        {
          "internalType": "uint256",
          "name": "",
          "type": "uint256"
        }
      ],
      "stateMutability": "view",
      "type": "function"
    },
    {
      "inputs": [],
      "name": "reinsuranceReserve",
      "outputs": [
        {
          "internalType": "uint256",
          "name": "",
          "type": "uint256"
        }
      ],
      "stateMutability": "view",
      "type": "function"
    },
    {
      "inputs": [],
      "name": "renounceOwnership",
      "outputs": [],
      "stateMutability": "nonpayable",
      "type": "function"
    },
    {
      "inputs": [],
      "name": "reserveRatio",
      "outputs": [
        {
          "internalType": "uint256",
          "name": "",
          "type": "uint256"
        }
      ],
      "stateMutability": "view",
      "type": "function"
    },
    {
      "inputs": [],
      "name": "stablecoin",
      "outputs": [
        {
          "internalType": "contract ChainSureStablecoin",
          "name": "",
          "type": "address"
        }
      ],
      "stateMutability": "view",
      "type": "function"
    },
    {
      "inputs": [
        {
          "internalType": "uint256",
          "name": "",
          "type": "uint256"
        }
      ],
      "name": "surplusHistory",
      "outputs": [
        {
          "internalType": "uint256",
          "name": "totalPremiums",
          "type": "uint256"
        },
        {
          "internalType": "uint256",
          "name": "totalClaims",
          "type": "uint256"
        },
        {
          "internalType": "uint256",
          "name": "operatingExpenses",
          "type": "uint256"
        },
        {
          "internalType": "uint256",
          "name": "reinsuranceCosts",
          "type": "uint256"
        },
        {
          "internalType": "uint256",
          "name": "reserveRequirement",
          "type": "uint256"
        },
        {
          "internalType": "uint256",
          "name": "emergencyFundAllocation",
          "type": "uint256"
        },
        {
          "internalType": "uint256",
          "name": "distributableSurplus",
          "type": "uint256"
        },
        {
          "internalType": "uint256",
          "name": "timestamp",
          "type": "uint256"
        }
      ],
      "stateMutability": "view",
      "type": "function"
    },
    {
      "inputs": [],
      "name": "totalDistributed",
      "outputs": [
        {
          "internalType": "uint256",
          "name": "",
          "type": "uint256"
        }
      ],
      "stateMutability": "view",
      "type": "function"
    },
    {
      "inputs": [
        {
          "internalType": "address",
          "name": "newOwner",
          "type": "address"
        }
      ],
      "name": "transferOwnership",
      "outputs": [],
      "stateMutability": "nonpayable",
      "type": "function"
    },
    {
      "inputs": [
        {
          "internalType": "address",
          "name": "",
          "type": "address"
        }
      ],
      "name": "unclaimedRewards",
      "outputs": [
        {
          "internalType": "uint256",
          "name": "",
          "type": "uint256"
        }
      ],
      "stateMutability": "view",
      "type": "function"
    },
    {
      "inputs": [],
      "name": "unpause",
      "outputs": [],
      "stateMutability": "nonpayable",
      "type": "function"
    },
    {
      "inputs": [
        {
          "internalType": "uint256",
          "name": "_governanceTokenWeight",
          "type": "uint256"
        },
        {
          "internalType": "uint256",
          "name": "_policyholderBonus",
          "type": "uint256"
        },
        {
          "internalType": "uint256",
          "name": "_reserveRatio",
          "type": "uint256"
        },
        {
          "internalType": "uint256",
          "name": "_emergencyFundRatio",
          "type": "uint256"
        },
        {
          "internalType": "uint256",
          "name": "_reinsuranceRatio",
          "type": "uint256"
        }
      ],
      "name": "updateDistributionParameters",
      "outputs": [],
      "stateMutability": "nonpayable",
      "type": "function"
    },
    {
      "inputs": [
        {
          "internalType": "uint256",
          "name": "newAmount",
          "type": "uint256"
        }
      ],
      "name": "updateMinimumDistributionAmount",
      "outputs": [],
      "stateMutability": "nonpayable",
      "type": "function"
    },
    {
      "inputs": [
        {
          "internalType": "address",
          "name": "newProvider",
          "type": "address"
        }
      ],
      "name": "updateReinsuranceProvider",
      "outputs": [],
      "stateMutability": "nonpayable",
      "type": "function"
    },
    {
      "inputs": [
        {
          "internalType": "address",
          "name": "",
          "type": "address"
        },
        {
          "internalType": "uint256",
          "name": "",
          "type": "uint256"
        }
      ],
      "name": "userDistributions",
      "outputs": [
        {
          "internalType": "uint256",
          "name": "",
          "type": "uint256"
        }
      ],
      "stateMutability": "view",
      "type": "function"
    }
  ],
  "bytecode": "0x6080346200013757601f6200246338819003918201601f19168301916001600160401b038311848410176200013c5780849260809460405283398101031262000137576200004d8162000152565b6200005b6020830162000152565b6200007760606200006f6040860162000152565b940162000152565b6000546040519460018060a01b0380948193338382167f8be0079c531659141344cd1fd0a4f28419497f9722a3daafe3b4186f6b6457e0600080a360ff60a01b1933169060018060a81b031916176000556001805560016009556046600d55601e600e556050600f556005601055600a60115569021e19e0c9bab24000006012558160018060a01b031997168760025416176002551685600354161760035516836004541617600455169060135416176013556122fb9081620001688239f35b600080fd5b634e487b7160e01b600052604160045260246000fd5b51906001600160a01b0382168203620001375756fe6080604052600436101561001257600080fd5b60e0600035811c9081630962ef79146118435781630c7d5cd8146118255781630f2cba83146117cd57816321241dfe146117af578163257d626c14611634578163361887611461160b5781633f4ba83a1461156f5781634487d3df146114ff578163598b3e661461116b5781635b81ead1146111205781635bcd9055146110515781635c975abb1461102b57816369a69e2914610eff578163715018a614610ea6578163729d0a8a14610c69578163795be4b914610c4b5781637f6172d214610bfb5781638042331014610bdd5781638456cb5914610b7b5781638da5cb5b14610b525781638e3b9c5e14610b3457816393f9c5bc14610b16578163949813b814610adc578163ae5bc25f14610abe578163af02808a14610a95578163b2f9edf414610a74578163b493e15114610a31578163c07984ff14610989578163c21c0a3b146107ba578163c5ab972f1461079c578163c605d2371461077e578163c92306b314610760578163c95341f8146106ac578163cc8593781461068e578163e9cbd82214610665578163efca2eed14610647578163f166b2fb14610376578163f295d187146102f757508063f2fde38b1461022e578063f96dae0a146102055763ffc9a0f1146101e257600080fd5b34610200576000366003190112610200576020600d54604051908152f35b600080fd5b34610200576000366003190112610200576003546040516001600160a01b039091168152602090f35b3461020057602036600319011261020057610247611acc565b61024f611bd0565b6001600160a01b039081169081156102a357600054826bffffffffffffffffffffffff60a01b821617600055167f8be0079c531659141344cd1fd0a4f28419497f9722a3daafe3b4186f6b6457e0600080a3005b60405162461bcd60e51b815260206004820152602660248201527f4f776e61626c653a206e6577206f776e657220697320746865207a65726f206160448201526564647265737360d01b6064820152608490fd5b3461020057602036600319011261020057600435906008548210156102005761032261010092611b96565b50805491600182015491600281015460038201546004830154906005840154926007600686015495015496604051988952602089015260408801526060870152608086015260a085015260c0840152820152f35b346102005760608060031936011261020057610390611acc565b906024908135916044359067ffffffffffffffff9081831161020057366023840112156102005782600401359182116106335760405195602092601f19946103df8587601f850116018a611b74565b81895236848383010111610200578160009285879301838c013789010152610405611bd0565b600b548087116105d6576001600160a01b0390828216156105845761046c9285926104318a8094611c5b565b600b556002541690600060405180968195829463a9059cbb60e01b84526004840160209093929193604081019460018060a01b031681520152565b03925af19081156105785760009161054b575b50156104f2575060405193845260408185015284519081604086015260005b8281106104df577fa55349c3c88e204c20f2b2b621bdecd520694c098bb96def5cba33c13593f07286868187601f88600085828601015201168101030190a1005b868101820151868201860152810161049e565b90602d6084926040519262461bcd60e51b845260048401528201527f537572706c75734469737472696275746f723a20656d657267656e637920747260448201526c185b9cd9995c8819985a5b1959609a1b6064820152fd5b61056b9150833d8511610571575b6105638183611b74565b8101906121a6565b8761047f565b503d610559565b6040513d6000823e3d90fd5b60405162461bcd60e51b8152600481018690526025818601527f537572706c75734469737472696275746f723a20696e76616c696420726563696044820152641c1a595b9d60da1b6064820152608490fd5b60405162461bcd60e51b8152600481018590526030818501527f537572706c75734469737472696275746f723a20696e73756666696369656e7460448201526f20656d657267656e63792066756e647360801b6064820152608490fd5b634e487b7160e01b60009081526041600452fd5b34610200576000366003190112610200576020600a54604051908152f35b34610200576000366003190112610200576002546040516001600160a01b039091168152602090f35b34610200576000366003190112610200576020600b54604051908152f35b3461020057602080600319360112610200576001600160a01b036106ce611acc565b1660005260068152604060002060405190818382549182815201908192600052846000209060005b8682821061074c57868661070c82880383611b74565b604051928392818401908285525180915260408401929160005b82811061073557505050500390f35b835185528695509381019392810192600101610726565b8354855290930192600192830192016106f6565b34610200576000366003190112610200576020600e54604051908152f35b34610200576000366003190112610200576020601154604051908152f35b3461020057600036600319011261020057602060405162278d008152f35b346102005760a03660031901126102005760043560243590604435606492833592608435946107e7611bd0565b806107f28484611c68565b0361093157605f84116108da576014851161087c57601e86116108215750600d55600e55600f55601055601155005b6084906d0e4c2e8d2de40e8dede40d0d2ced60931b6040519162461bcd60e51b835260206004840152602e60248401527f537572706c75734469737472696275746f723a207265696e737572616e6365206044840152820152fd5b608490700dcc840e4c2e8d2de40e8dede40d0d2ced607b1b6040519162461bcd60e51b835260206004840152603160248401527f537572706c75734469737472696275746f723a20656d657267656e63792066756044840152820152fd5b608490690de40e8dede40d0d2ced60b31b6040519162461bcd60e51b835260206004840152602a60248401527f537572706c75734469737472696275746f723a207265736572766520726174696044840152820152fd5b6084906a02073756d20746f203130360ac1b6040519162461bcd60e51b835260206004840152602b60248401527f537572706c75734469737472696275746f723a2077656967687473206d7573746044840152820152fd5b3461020057606036600319011261020057600054336001600160a01b0391821614908115610a23575b50156109d3576109c0612150565b6109d1604435602435600435611c75565b005b60405162461bcd60e51b815260206004820152602260248201527f537572706c75734469737472696275746f723a206e6f7420617574686f72697a604482015261195960f21b6064820152608490fd5b9050600454163314816109b2565b3461020057602036600319011261020057610a4a611acc565b610a52611bd0565b601380546001600160a01b0319166001600160a01b0392909216919091179055005b3461020057602036600319011261020057610a8d611bd0565b600435601255005b34610200576000366003190112610200576004546040516001600160a01b039091168152602090f35b34610200576000366003190112610200576020601054604051908152f35b34610200576020366003190112610200576001600160a01b03610afd611acc565b1660005260076020526020604060002054604051908152f35b34610200576000366003190112610200576020601254604051908152f35b34610200576000366003190112610200576020600c54604051908152f35b34610200576000366003190112610200576000546040516001600160a01b039091168152602090f35b3461020057600036600319011261020057610b94611bd0565b610b9c612150565b6000805460ff60a01b1916600160a01b1790556040513381527f62e78cea01bee320cd4e420270b5ea74000d11b0c9f74754ebdbfc544b05a25890602090a1005b34610200576000366003190112610200576020601454604051908152f35b3461020057604036600319011261020057610c14611ae2565b600435600052600560205260076040600020019060018060a01b0316600052602052602060ff604060002054166040519015158152f35b34610200576000366003190112610200576020600954604051908152f35b34610200576020806003193601126102005760043567ffffffffffffffff811161020057610c9b903690600401611b26565b90610ca461226f565b60009160005b818110610d7d575050508015610d2c5760025460405163a9059cbb60e01b815233600482015260248101929092528290829060449082906000906001600160a01b03165af190811561057857610d0992600092610d0f575b50506121be565b60018055005b610d259250803d10610571576105638183611b74565b8280610d02565b60405162461bcd60e51b8152600481018390526024808201527f537572706c75734469737472696275746f723a206e6f7468696e6720746f20636044820152636c61696d60e01b6064820152608490fd5b610d88818385612216565b3590816000526005865260406000209160ff806006850154169081610e8c575b5080610e59575b610dc6939080610e41575b610dcb575b5050612197565b610caa565b6008610dfc9133600052600781018a526040600020600160ff19825416179055019687895260406000205490611c68565b9533600052875260406000205490604051918252878201527f127926f9f9c57357941976fd23caadfc51770270b445a56dc7a26841f633048f60403392a28680610dbf565b50336000526008810188526040600020541515610dba565b5060028301549262ed4e008401809411610e765792421115610daf565b634e487b7160e01b600052601160045260246000fd5b905033600052600784018852604060002054161588610da8565b3461020057600036600319011261020057610ebf611bd0565b600080546001600160a01b0319811682556001600160a01b03167f8be0079c531659141344cd1fd0a4f28419497f9722a3daafe3b4186f6b6457e08280a3005b346102005760208060031936011261020057610f19611acc565b9060009160018060a01b03169182600052600690818352604060002092604051808583829754938481520190600052836000209260005b8582821061101557505050610f6792500385611b74565b60005b845181101561100b5760058282821b870101516000528252604060002060ff8086830154169081610ff1575b5080610fd6575b610fb1575b50610fac90612197565b610f6a565b610fac91936008610fcf928960005201845260406000205490611c68565b9290610fa2565b50600281015462ed4e008101809111610e7657421115610f9d565b905087600052600782018452604060002054161588610f96565b5090604051908152f35b855484526001958601958a955093019201610f50565b3461020057600036600319011261020057602060ff60005460a01c166040519015158152f35b34610200576020806003193601126102005760043567ffffffffffffffff811161020057611083903690600401611b26565b9061108c611bd0565b60009260005b8381106110b25784806110a157005b6110ad90600b54611c68565b600b55005b6110bd818585612216565b3560005260058252604060002060ff60068201541680611106575b6110ec575b506110e790612197565b611092565b6110e7919560016110ff92015490611c68565b94906110dd565b50600281015462ed4e008101809111610e765742116110d8565b3461020057604036600319011261020057611139611ae2565b600435600052600560205260086040600020019060018060a01b03166000526020526020604060002054604051908152f35b346102005760803660031901126102005767ffffffffffffffff6024358181116102005761119d903690600401611b26565b9091604435818111610200576111b7903690600401611b26565b9091606435908111610200576111d1903690600401611b26565b9490916111dc611bd0565b8085036114a85760043560005260056020526040600020938454156114505760ff6006860154166113fd57600185015460646112298161121e600d5485611c28565b0492600e5490611c28565b049360005b888110611358575050505050846112a1575b7f2c988013bcf083db11a3d0a33d2067def6d912fff0dd12fc92e7c7c4fd22e38884611287876001878260058201558160ff19600683015416176006820155015492611c68565b6040805160043581526020810193909352820152606090a1005b846112ab91611c3b565b90600883019060005b8681106112c2575050611240565b611326906001600160a01b03806112e26112dd848c88612216565b612226565b166000528460205260406000206112fa878254611c68565b90558061130b6112dd848c88612216565b1660005284602052856040600020541461132b575b50612197565b6112b4565b6113396112dd838b87612216565b166000526006602052611352600435604060002061223a565b88611320565b80611367611371928787612216565b3561137657612197565b61122e565b8061139a61138f611388838a8a612216565b3587611c28565b60048c015490611c3b565b6001600160a01b039182906113b4906112dd908f89612216565b1660005260088b016020526113cf6040600020918254611c68565b90556113df6112dd838d87612216565b1660005260066020526113f8600435604060002061223a565b612197565b60405162461bcd60e51b815260206004820152602560248201527f537572706c75734469737472696275746f723a20616c72656164792066696e616044820152641b1a5e995960da1b6064820152608490fd5b60405162461bcd60e51b815260206004820152602a60248201527f537572706c75734469737472696275746f723a20646973747269627574696f6e604482015269081b9bdd08199bdd5b9960b21b6064820152608490fd5b60405162461bcd60e51b815260206004820152602960248201527f537572706c75734469737472696275746f723a206172726179206c656e677468604482015268040dad2e6dac2e8c6d60bb1b6064820152608490fd5b3461020057602036600319011261020057600435600052600560205260406000208054906001810154906002810154600382015460048301549160ff600660058601549501541694604051968752602087015260408601526060850152608084015260a0830152151560c0820152f35b3461020057600036600319011261020057611588611bd0565b60005460ff8160a01c16156115cf5760ff60a01b19166000556040513381527f5db9ee0a495bf2e6ff9c91a7834c1ba4fdd244a5e8aa4e537bd38aeae4b073aa90602090a1005b60405162461bcd60e51b815260206004820152601460248201527314185d5cd8589b194e881b9bdd081c185d5cd95960621b6044820152606490fd5b34610200576000366003190112610200576013546040516001600160a01b039091168152602090f35b3461020057600036600319011261020057600880549067ffffffffffffffff821161179957604051916020906005926116718383861b0186611b74565b8185526000818152838601947ff3f7a9fe364faab93b216da50a3214154f22a0a2b415b23a84c8169e8b636ee390865b85841061172d5750505050505060405192818401908285525180915260408401929160005b8281106116d35785850386f35b835180518652808301518684015260408082015190870152606080820151908701526080808201519087015260a0808201519087015260c080820151908701528701518786015261010090940193928101926001016116c6565b848760019260409b999b5161174181611b57565b8654815284870154838201526002870154604082015260038701546060820152600487015460808201528587015460a0820152600687015460c08201528d6007880154908201528152019301930192919795976116a1565b634e487b7160e01b600052604160045260246000fd5b3461020057600036600319011261020057602060405162ed4e008152f35b34610200576040366003190112610200576117e6611acc565b6001600160a01b03166000908152600660205260409020805460243591908210156102005760209161181791611af8565b90546040519160031b1c8152f35b34610200576000366003190112610200576020600f54604051908152f35b34610200576020806003193601126102005760043561186061226f565b806000526005825260406000209160ff60068401541615611a715760078301923360005283825260ff60406000205416611a2057600281015462ed4e008101809111610e765742116119ca576008903360005201815260406000205492831561197b573360008181529183526040808320805460ff19166001179055600254905163a9059cbb60e01b81526004810192909252602482018690529091839183916044918391906001600160a01b03165af18015610578576119299160009161195e575b506121be565b6040519283528201527f127926f9f9c57357941976fd23caadfc51770270b445a56dc7a26841f633048f60403392a260018055005b6119759150833d8511610571576105638183611b74565b85611923565b60405162461bcd60e51b815260048101839052602160248201527f537572706c75734469737472696275746f723a206e6f20616c6c6f636174696f6044820152603760f91b6064820152608490fd5b60405162461bcd60e51b815260048101839052602860248201527f537572706c75734469737472696275746f723a20636c61696d20706572696f6460448201526708195e1c1a5c995960c21b6064820152608490fd5b60405162461bcd60e51b815260048101839052602360248201527f537572706c75734469737472696275746f723a20616c726561647920636c61696044820152621b595960ea1b6064820152608490fd5b6084906040519062461bcd60e51b82526004820152602e60248201527f537572706c75734469737472696275746f723a20646973747269627574696f6e60448201526d081b9bdd08199a5b985b1a5e995960921b6064820152fd5b600435906001600160a01b038216820361020057565b602435906001600160a01b038216820361020057565b8054821015611b105760005260206000200190600090565b634e487b7160e01b600052603260045260246000fd5b9181601f840112156102005782359167ffffffffffffffff8311610200576020808501948460051b01011161020057565b610100810190811067ffffffffffffffff82111761179957604052565b90601f8019910116810190811067ffffffffffffffff82111761179957604052565b600854811015611b1057600860005260031b7ff3f7a9fe364faab93b216da50a3214154f22a0a2b415b23a84c8169e8b636ee30190600090565b6000546001600160a01b03163303611be457565b606460405162461bcd60e51b815260206004820152602060248201527f4f776e61626c653a2063616c6c6572206973206e6f7420746865206f776e65726044820152fd5b81810292918115918404141715610e7657565b8115611c45570490565b634e487b7160e01b600052601260045260246000fd5b91908203918211610e7657565b91908201809211610e7657565b9081156120f5576064611c8a60115484611c28565b04906064611ca4611c9b8386611c5b565b600f5490611c28565b04611cb883611cb38785611c68565b611c68565b6000908511156120ef5750611cda83611cd587611cd58689611c5b565b611c5b565b925b8184111561205057611cee8285611c5b565b94611d176064611d0060105489611c28565b048097611d0f82600b54611c68565b600b55611c5b565b95601254871015611ed1575b82611e1e575b60405191611d3683611b57565b8252602082019485526040820197885260608201928352608082019084825260a0830190815260c083019088825260e0840192428452600854600160401b81101561179957806001611d8b9201600855611b96565b969096611e08577f501bc7f44134f52623cb9a0d8ec14baef27efa9a511fc8304e2e033ab96ba0a99b611e039960079751895551600189015551600288015551600387015551600486015551600585015551600684015551910155604051938493846040919493926060820195825260208201520152565b0390a1565b634e487b7160e01b600052600060045260246000fd5b6013546001600160a01b03168015611e785760407f6cc6a9a001a25e9485fe60eeb44a5f6ba8b3d3a7d0b23844443c6f985048b21e91611e6086600c54611c68565b600c55426014558151908682526020820152a1611d29565b60405162461bcd60e51b815260206004820152602b60248201527f537572706c75734469737472696275746f723a206e6f207265696e737572616e60448201526a31b290383937bb34b232b960a91b6064820152608490fd5b600954611edd81612197565b6009556000194301438111610e76578160005260206005815260409182600020908482558b6001830155426002830155600382015560018060a01b039060048383600354168651928380926318160ddd60e01b82525afa9081156120455790849291600091612011575b508160069160046000969401550160ff1981541690556002541660648d865194859384926323b872dd60e01b845233600485015230602485015260448401525af190811561200657928b7f2c988013bcf083db11a3d0a33d2067def6d912fff0dd12fc92e7c7c4fd22e3889593611fc96000946060978691611fe957506121be565b611fd582600a54611c68565b600a558251948552840152820152a1611d23565b6120009150833d8511610571576105638183611b74565b38611923565b83513d6000823e3d90fd5b919282813d831161203e575b6120278183611b74565b8101031261203b5750518391906000611f47565b80fd5b503d61201d565b85513d6000823e3d90fd5b919492506040519361206185611b57565b84526020840194855260408401928352606084019182526080840190815260a08401906000825260c08501926000845260e0860194428652600854600160401b811015611799578060016120b89201600855611b96565b989098611e085760079751895551600189015551600288015551600387015551600486015551600585015551600684015551910155565b92611cdc565b60405162461bcd60e51b815260206004820152602d60248201527f537572706c75734469737472696275746f723a206e6f207072656d69756d732060448201526c746f206469737472696275746560981b6064820152608490fd5b60ff60005460a01c1661215f57565b60405162461bcd60e51b815260206004820152601060248201526f14185d5cd8589b194e881c185d5cd95960821b6044820152606490fd5b6000198114610e765760010190565b90816020910312610200575180151581036102005790565b156121c557565b60405162461bcd60e51b815260206004820152602360248201527f537572706c75734469737472696275746f723a207472616e73666572206661696044820152621b195960ea1b6064820152608490fd5b9190811015611b105760051b0190565b356001600160a01b03811681036102005790565b8054600160401b8110156117995761225791600182018155611af8565b819291549060031b91821b91600019901b1916179055565b600260015414612280576002600155565b60405162461bcd60e51b815260206004820152601f60248201527f5265656e7472616e637947756172643a207265656e7472616e742063616c6c006044820152606490fdfea264697066735822122027495e6c47676301bbe1050f01c6a95cd51c9747b93bb6390c954336f46188b464736f6c63430008140033",
  "linkReferences": {},
  "deployedLinkReferences": {}
}