{
  "_format": "hh-sol-artifact-1",
  "contractName": "JuryOracleImpl",
  "sourceName": "contracts/JuryOracleImpl.sol",
  "abi": [
    {
      "inputs": [
        {
          "internalType": "address",
          "name": "_governanceToken",
          "type": "address"
        },
        {
          "internalType": "address",
          "name": "_claimsEngine",
          "type": "address"
        },
        {
          "internalType": "address",
          "name": "_admin",
          "type": "address"
        }
      ],
      "stateMutability": "nonpayable",
      "type": "constructor"
    },
    {
      "anonymous": false,
      "inputs": [
        {
          "indexed": true,
          "internalType": "bytes32",
          "name": "claimId",
          "type": "bytes32"
        },
        {
          "indexed": false,
          "internalType": "address[]",
          "name": "jurors",
          "type": "address[]"
        },
        {
          "indexed": false,
          "internalType": "bytes32",
          "name": "seed",
          "type": "bytes32"
        }
      ],
      "name": "PanelSelected",
      "type": "event"
    },
    {
      "anonymous": false,
      "inputs": [
        {
          "indexed": true,
          "internalType": "bytes32",
          "name": "claimId",
          "type": "bytes32"
        },
        {
          "indexed": true,
          "internalType": "address",
          "name": "juror",
          "type": "address"
        },
        {
          "indexed": false,
          "internalType": "uint16",
          "name": "payoutBps",
          "type": "uint16"
        },
        {
          "indexed": false,
          "internalType": "uint16",
          "name": "confidenceBps",
          "type": "uint16"
        },
        {
          "indexed": false,
          "internalType": "bytes32",
          "name": "rationaleHash",
          "type": "bytes32"
        }
      ],
      "name": "VoteCast",
      "type": "event"
    },
    {
      "inputs": [],
      "name": "admin",
      "outputs": [
        {
          "internalType": "address",
          "name": "",
          "type": "address"
        }
      ],
      "stateMutability": "view",
      "type": "function"
    },
    {
      "inputs": [],
      "name": "claimsEngine",
      "outputs": [
        {
          "internalType": "address",
          "name": "",
          "type": "address"
        }
      ],
      "stateMutability": "view",
      "type": "function"
    },
    {
      "inputs": [
        {
          "internalType": "bytes32",
          "name": "",
          "type": "bytes32"
        }
      ],
      "name": "deadlines",
      "outputs": [
        {
          "internalType": "uint64",
          "name": "",
          "type": "uint64"
        }
      ],
      "stateMutability": "view",
      "type": "function"
    },
    {
      "inputs": [
        {
          "internalType": "bytes32",
          "name": "claimId",
          "type": "bytes32"
        }
      ],
      "name": "getPanel",
      "outputs": [
        {
          "internalType": "address[]",
          "name": "jurors",
          "type": "address[]"
        },
        {
          "internalType": "uint64",
          "name": "deadline",
          "type": "uint64"
        }
      ],
      "stateMutability": "view",
      "type": "function"
    },
    {
      "inputs": [
        {
          "internalType": "bytes32",
          "name": "claimId",
          "type": "bytes32"
        },
        {
          "internalType": "address",
          "name": "juror",
          "type": "address"
        }
      ],
      "name": "getVote",
      "outputs": [
        {
          "components": [
            {
              "internalType": "uint16",
              "name": "payoutBps",
              "type": "uint16"
            },
            {
              "internalType": "uint16",
              "name": "confidenceBps",
              "type": "uint16"
            },
            {
              "internalType": "bytes32",
              "name": "rationaleHash",
              "type": "bytes32"
            },
            {
              "internalType": "uint8",
              "name": "stakeTier",
              "type": "uint8"
            },
            {
              "internalType": "uint8",
              "name": "locality",
              "type": "uint8"
            },
            {
              "internalType": "uint8",
              "name": "expertise",
              "type": "uint8"
            }
          ],
          "internalType": "struct IJuryOracle.VoteInput",
          "name": "input",
          "type": "tuple"
        },
        {
          "internalType": "bool",
          "name": "exists",
          "type": "bool"
        }
      ],
      "stateMutability": "view",
      "type": "function"
    },
    {
      "inputs": [],
      "name": "governanceToken",
      "outputs": [
        {
          "internalType": "address",
          "name": "",
          "type": "address"
        }
      ],
      "stateMutability": "view",
      "type": "function"
    },
    {
      "inputs": [
        {
          "internalType": "bytes32",
          "name": "",
          "type": "bytes32"
        },
        {
          "internalType": "uint256",
          "name": "",
          "type": "uint256"
        }
      ],
      "name": "panels",
      "outputs": [
        {
          "internalType": "address",
          "name": "",
          "type": "address"
        }
      ],
      "stateMutability": "view",
      "type": "function"
    },
    {
      "inputs": [
        {
          "internalType": "bytes32",
          "name": "claimId",
          "type": "bytes32"
        },
        {
          "internalType": "bytes32",
          "name": "seed",
          "type": "bytes32"
        }
      ],
      "name": "selectPanel",
      "outputs": [],
      "stateMutability": "nonpayable",
      "type": "function"
    },
    {
      "inputs": [
        {
          "internalType": "bytes32",
          "name": "claimId",
          "type": "bytes32"
        },
        {
          "components": [
            {
              "internalType": "uint16",
              "name": "payoutBps",
              "type": "uint16"
            },
            {
              "internalType": "uint16",
              "name": "confidenceBps",
              "type": "uint16"
            },
            {
              "internalType": "bytes32",
              "name": "rationaleHash",
              "type": "bytes32"
            },
            {
              "internalType": "uint8",
              "name": "stakeTier",
              "type": "uint8"
            },
            {
              "internalType": "uint8",
              "name": "locality",
              "type": "uint8"
            },
            {
              "internalType": "uint8",
              "name": "expertise",
              "type": "uint8"
            }
          ],
          "internalType": "struct IJuryOracle.VoteInput",
          "name": "input",
          "type": "tuple"
        }
      ],
      "name": "submitVote",
      "outputs": [],
      "stateMutability": "nonpayable",
      "type": "function"
    },
    {
      "inputs": [
        {
          "internalType": "bytes32",
          "name": "",
          "type": "bytes32"
        }
      ],
      "name": "voteSubmitted",
      "outputs": [
        {
          "internalType": "bool",
          "name": "",
          "type": "bool"
        }
      ],
      "stateMutability": "view",
      "type": "function"
    },
    {
      "inputs": [
        {
          "internalType": "bytes32",
          "name": "",
          "type": "bytes32"
        },
        {
          "internalType": "address",
          "name": "",
          "type": "address"
        }
      ],
      "name": "votes",
      "outputs": [
        {
          "internalType": "uint16",
          "name": "payoutBps",
          "type": "uint16"
        },
        {
          "internalType": "uint16",
          "name": "confidenceBps",
          "type": "uint16"
        },
        {
          "internalType": "bytes32",
          "name": "rationaleHash",
          "type": "bytes32"
        },
        {
          "internalType": "uint8",
          "name": "stakeTier",
          "type": "uint8"
        },
        {
          "internalType": "uint8",
          "name": "locality",
          "type": "uint8"
        },
        {
          "internalType": "uint8",
          "name": "expertise",
          "type": "uint8"
        }
      ],
      "stateMutability": "view",
      "type": "function"
    }
  ],
  "bytecode": "0x60c0346100af57601f610b5638819003918201601f19168301916001600160401b038311848410176100b4578084926060946040528339810103126100af57610047816100ca565b906100606040610059602084016100ca565b92016100ca565b60809290925260a052600080546001600160a01b0319166001600160a01b03909216919091179055604051610a7790816100df82396080518160b1015260a05181818161027f01526109280152f35b600080fd5b634e487b7160e01b600052604160045260246000fd5b51906001600160a01b03821682036100af5756fe608060408181526004918236101561001657600080fd5b600092833560e01c9182631099ae0a1461091457508163269be4d6146108e8578163346a4a51146108b6578163406ee60f146107f857816389f5ef6e146105375781639386775a146104c257816394cb57991461025f578163b3e7c2bd1461015c578163def9e8321461010b57508063f851a440146100e45763f96dae0a1461009e57600080fd5b346100e057816003193601126100e057517f00000000000000000000000000000000000000000000000000000000000000006001600160a01b03168152602090f35b5080fd5b50346100e057816003193601126100e057905490516001600160a01b039091168152602090f35b8284346101595781600319360112610159576024359235815260016020528181209081548410156101595750602092610143916109bf565b905491519160018060a01b039160031b1c168152f35b80fd5b90503461025b5760a09060e09361017236610994565b939092855194610181866109ed565b83865283836020978289820152828a82015282606082015282608082015201528484526003865286842090600180851b03168452855260808684209187519788936101cb856109ed565b80549861ffff808b168752808288019b60101c168b528684600260018601549582840196875201549a606083019760ff9d8d8f9e9d8f9e9c8f9d978d8f809a169052019d8e888460081c169052019e8f9160101c169052825285522054169a8185519d51168d525116908b015251908901525116606087015251166080850152511660a0830152151560c0820152f35b8280fd5b8383346100e057806003193601126100e0578235906001600160a01b03907f00000000000000000000000000000000000000000000000000000000000000008216330361048b5780519167ffffffffffffffff608084018181118582101761047857835260038452602091828501606036823785511561046557731234567890123456789012345678901234567890815285519160019283101561045257732345678901234567890123456789012345678901868801528651600210156104525773345678901234567890123456789012345678901260608801528789528285528589209087519285841161043f5768010000000000000000841161043f578254848455808510610418575b50918a52858a20908a5b848110610405575050505050506203f4804201908142116103f257869750857fdca83aad828533cc9ba8baaa318ecce49fafa170e8881797ab3ce382a53003b496975260028352838820911667ffffffffffffffff198254161790556103e48251938385948552840190610957565b90602435908301520390a280f35b634e487b7160e01b875260118852602487fd5b8351821683820155928701928501610375565b8585898e8781522092830192015b82811061043457505061036b565b8d8155018690610426565b634e487b7160e01b8b5260418c5260248bfd5b634e487b7160e01b895260328a52602489fd5b634e487b7160e01b885260328952602488fd5b634e487b7160e01b875260418852602487fd5b5162461bcd60e51b815260208186015260126024820152714f6e6c7920636c61696d7320656e67696e6560701b6044820152606490fd5b5050346100e05760ff8160c0936104d836610994565b90825260036020528282209060018060a01b031682526020522091825492600260018201549101549180519461ffff90818116875260101c1660208601528401528181166060840152818160081c16608084015260101c1660a0820152f35b9190503461025b5760e036600319011261025b5781359060c03660231901126107f457818452600190602082815281862054156107bd578386526002815267ffffffffffffffff828720541642116107825783865284815260ff8287205416610750578580845b6106e9575b50156106a7578386526003815281862033875281528186209261ffff95866105c9610a1f565b1685549063ffff00006105da610a30565b60101b169163ffffffff19161717855560026064359586848201550160843560ff81168091036106a35781549060a4359060ff8216820361069f5760c4359060ff8216820361069b5762ff000061ff009260101b169362ffffff1916179160081b161717905585885282528287209060ff1982541617905561065a610a1f565b94610663610a30565b8184519716875216908501528301527f184306c9c1a1eb3f132c66698be97625260fd5084dabe34dcc04a8a393001d7760603393a380f35b8c80fd5b8b80fd5b8980fd5b8490606492519162461bcd60e51b8352820152601a60248201527f4e6f742061206a75726f7220666f72207468697320636c61696d0000000000006044820152fd5b858852848352838820805482101561074a5781610705916109bf565b905460039190911b1c6001600160a01b0316331461074157600019811461072e5784018461059e565b634e487b7160e01b885260118752602488fd5b505082386105a3565b506105a3565b8490606492519162461bcd60e51b8352820152600d60248201526c105b1c9958591e481d9bdd1959609a1b6044820152fd5b8490606492519162461bcd60e51b83528201526016602482015275159bdd1a5b99c8191958591b1a5b99481c185cdcd95960521b6044820152fd5b8490606492519162461bcd60e51b835282015260126024820152714e6f2070616e656c20666f7220636c61696d60701b6044820152fd5b8380fd5b8383346100e0576020908160031936011261025b57833583526001808352818420916002845267ffffffffffffffff948582822054169382518094878354928381520192845287842091845b8982821061089a575050505050839003601f01601f1916830195861183871017610887575084955090818561087f9352808652850190610957565b918301520390f35b634e487b7160e01b815260418752602490fd5b84546001600160a01b0316865290940193928201928201610844565b90503461025b57602036600319011261025b578160209367ffffffffffffffff92358152600285522054169051908152f35b90503461025b57602036600319011261025b57816020938260ff93358252855220541690519015158152f35b8490346100e057816003193601126100e0577f00000000000000000000000000000000000000000000000000000000000000006001600160a01b03168152602090f35b90815180825260208080930193019160005b828110610977575050505090565b83516001600160a01b031685529381019392810192600101610969565b60409060031901126109ba57600435906024356001600160a01b03811681036109ba5790565b600080fd5b80548210156109d75760005260206000200190600090565b634e487b7160e01b600052603260045260246000fd5b60c0810190811067ffffffffffffffff821117610a0957604052565b634e487b7160e01b600052604160045260246000fd5b60243561ffff811681036109ba5790565b60443561ffff811681036109ba579056fea2646970667358221220967e9b7e8c19be69c009a391c463e63fd9c686fdb67164a2ec8296297274745664736f6c63430008140033",
  "linkReferences": {},
  "deployedLinkReferences": {}
}